:100000000C9446000C9465000C9465000C946500FB
:100010000C9465000C9465000C9465000C946500CC
:100020000C9465000C9465000C9465000C946500BC
:100030000C9407010C9465000C9465000C94650009
:100040000C9465000C9465000C9465000C9465009C
:100050000C9465000C9465000C9465000C9465008C
:100060000C9465000C9465000C9465000C9465007C
:100070000C9465000C9465000C9465000C9465006C
:100080000C9465000C9465000C94650011241FBE4F
:10009000CFEFD0E1DEBFCDBF12E0A0E0B1E0E4EAF7
:1000A000FDE100E00BBF02C007900D92AC38B10734
:1000B000D9F714E0ACE8B2E001C01D92A433B10757
:1000C000E1F70E94C7020C94D00E0C9400008091BE
:1000D00002019091030160910001709101010E9461
:1000E000860E019621E030E0409104015091050117
:1000F0004817590711F020E030E0C901089521E0C8
:1001000030E04091020150910301809104019091EF
:1001100005014817590711F020E030E0C9010895A2
:10012000EF92FF920F931F93CF93DF937B018C018C
:100130000E946700EC010E947F00209759F500970C
:1001400079F01092050110920401E092A002F09261
:10015000A1020093A2021093A30281E090E016C0D6
:100160008091020190910301FC01EE0FFF1FEE0F41
:10017000FF1FE056FD4FE082F18202831383019658
:1001800060910001709101010E94860E909303011D
:1001900080930201DF91CF911F910F91FF90EF901B
:1001A00008950E947F00009779F480910401909156
:1001B0000501019660910001709101010E94860E77
:1001C000909305018093040108959C01B90188274B
:1001D00077FD8095982F0E94D60B2EE230E940EAF9
:1001E0005BE30E944C0A0895369A3699FECF24B1FB
:1001F00035B1C901089587E086B9379A08958BE033
:100200008EBD809132048BBD80E187BF08951F921F
:100210000F920FB60F920BB60F9211242F933F93AC
:100220004F935F936F937F938F939F93AF93BF93FE
:10023000EF93FF930E94F400909331048093300475
:10024000FF91EF91BF91AF919F918F917F916F91AE
:100250005F914F913F912F910F900BBE0F900FBE6A
:100260000F901F9018951F93CF93DF9320E030E0FD
:1002700040E251E40E944C0A0E94360CEB0180E0FF
:1002800090E06DE80E940E09CE016AE070E00E94E5
:10029000860E182F605D8DE890E00E940E098EE8B2
:1002A00090E06EE20E940E09612F605D8FE890E0A1
:1002B0000E940E09DF91CF911F910895EF92FF9256
:1002C0000F931F93DF93CF93CDB7DEB728970FB669
:1002D000F894DEBF0FBECDBF7B018C0120E030E083
:1002E00040E85FE30E94A60B181634F17E010894E3
:1002F000E11CF11C88E0F70111928A95E9F78FE182
:10030000888780E090E060E40E940E098E01075F1C
:100310001F4FF70161917F0181E090E00E940E097B
:10032000E016F106B1F780E090E06CE80E940E095B
:1003300081E090E060E01CC1C801B70120E030E03E
:1003400040E85FE30E94460B18169CF5C801B70110
:1003500020E030E040E050E40E94A60B18164CF17B
:10036000DE011196E8E3F1E088E001900D92815002
:10037000E1F780E090E068E40E940E098E010F5FD3
:100380001F4F79E0E72EF12CEC0EFD1EF801619174
:100390008F0181E090E00E940E090E151F05B1F754
:1003A00080E090E06CE80E940E0981E090E061E05E
:1003B000DFC0C801B70120E030E040E050E40E9417
:1003C000460B18169CF5C801B70120E030E040E468
:1003D00050E40E94A60B18164CF1DE011196E0E3E2
:1003E000F1E088E001900D928150E1F780E090E02B
:1003F00060E50E940E098E010F5F1F4F69E0E62E37
:10040000F12CEC0EFD1EF80161918F0181E090E06E
:100410000E940E090E151F05B1F780E090E06CE810
:100420000E940E0981E090E062E0A2C0C801B7011D
:1004300020E030E040E450E40E94460B18169CF5A2
:10044000C801B70120E030E040E850E40E94A60B6C
:1004500018164CF1DE011196E8E2F1E088E0019017
:100460000D928150E1F780E090E068E50E940E096E
:100470008E010F5F1F4F59E0E52EF12CEC0EFD1E93
:10048000F80161918F0181E090E00E940E090E1544
:100490001F05B1F780E090E06CE80E940E0981E052
:1004A00090E063E065C0C801B70120E030E040E8BB
:1004B00050E40E94460B18169CF5C801B70120E0D5
:1004C00030E040EA50E40E94760B87FF29C0DE014D
:1004D0001196E0E2F1E088E001900D928150E1F7A1
:1004E00080E090E060E60E940E098E010F5F1F4FD2
:1004F00049E0E42EF12CEC0EFD1EF80161918F0114
:1005000081E090E00E940E090E151F05B1F780E012
:1005100090E06CE80E940E0981E090E064E028C061
:10052000DE011196E8E1F1E088E001900D92815042
:10053000E1F780E090E068E60E940E098E010F5F0F
:100540001F4F39E0E32EF12CEC0EFD1EF8016191F6
:100550008F0181E090E00E940E090E151F05B1F792
:1005600080E090E06CE80E940E0981E090E065E098
:100570000E940E0928960FB6F894DEBF0FBECDBFBD
:10058000CF91DF911F910F91FF90EF900895DF922F
:10059000EF92FF920F931F93DF93CF93CDB7DEB708
:1005A00062970FB6F894DEBF0FBECDBFDE01119685
:1005B000E6E0F1E082E101900D928150E1F78FEFEA
:1005C00084BB0E94FB000E949D090E9449040E9476
:1005D0007904182F8F3FD9F3E82FF0E03197EE0F11
:1005E000FF1FEC0FFD1F21813281309333042093D4
:1005F00032040E94FF007894105D60913004709185
:10060000310481E00E9484036091300470913104D0
:10061000882777FD8095982F0E94D60B2EE230E92F
:1006200040EA5BE30E944C0AD62EE72EF82E092FF3
:100630008091000190910101019720910201309178
:1006400003012817390774F4809104019091050182
:1006500001968230910530F46D2D7E2D8F2D902FD7
:100660000E949000809100019091010101972091DA
:100670000201309103012817390771F480910401B8
:1006800090910501009741F46D2D7E2D8F2D902FB7
:100690000E9490000E94D1000E9467008130910565
:1006A00041F40E94D1006D2D7E2D8F2D902F0E9440
:1006B00090002D2D3E2D4F2D502FCA01B9010E94C3
:1006C00033016D2D7E2D8F2D902F0E945E0180E0D5
:1006D00090E060EC0E940E0981E090E063E50E94EA
:1006E0000E0981E090E06AE30E940E0981E090E04B
:1006F000612F0E940E0960910201709103018DEC3F
:1007000090E00E94FD0979CFDF93CF93CDB7DEB79C
:1007100028970FB6F894DEBF0FBECDBF8E837887C3
:100720006F8384E690E09A8389831C821B8225C0B4
:100730008F81988529813A81B9010E94860E9B019B
:10074000C9012AE030E0B9010E94860E8D838E81B6
:100750009E819F5F9E836D810E94CB0389819A81D8
:100760002AE030E0B9010E94860E9B013A8329837A
:100770008B819C8101969C838B838B819C818330B0
:100780009105B4F228960FB6F894DEBF0FBECDBF28
:10079000CF91DF910895DF93CF9300D000D000D0A8
:1007A000CDB7DEB78D836E8387E390E027E330E03B
:1007B000F9012081206EFC0120838D81882F90E03B
:1007C000382F22278E81882F90E0822B932B9A83BB
:1007D000898388E390E028E330E0F90120812F77D6
:1007E000FC0120831C821B8234C088E390E028E354
:1007F00030E0F90120812F7BFC01208389819A81DF
:10080000992354F488E390E028E330E0F901208153
:100810002062FC01208309C088E390E028E330E0F7
:10082000F90120812F7DFC01208389819A81880F25
:10083000991F9A83898388E390E028E330E0F901E7
:1008400020812064FC0120838B819C8101969C8304
:100850008B838B819C81803191053CF288E390E011
:1008600028E330E0F90120812F7DFC01208388E31B
:1008700090E028E330E0F90120812068FC0120832A
:1008800026960FB6F894DEBF0FBECDBFCF91DF9195
:100890000895DF93CF9300D0CDB7DEB789E06FEF37
:1008A0000E94CB038AE06FE00E94CB038BE067E0FD
:1008B0000E94CB038FE060E00E94CB038CE061E0FC
:1008C0000E94CB031A8219820AC089818F5F6FE070
:1008D0000E94CB0389819A8101969A8389838981B9
:1008E0009A81883091058CF30F900F90CF91DF9112
:1008F0000895DF93CF9300D00F92CDB7DEB70E945B
:10090000B404898380918C029981981719F08981A8
:100910008F3F29F4898180938C028FEF1FC01B8247
:100920001A82898180938C020E94B40489838A810F
:100930009B8101969B838A8390918C028981981771
:1009400029F48A819B81181619065CF78A819B819C
:100950008130910511F4898101C08FEF0F900F90C4
:100960000F90CF91DF910895DF93CF9300D000D007
:1009700000D0CDB7DEB78FEF8D831A8219824DC0BC
:1009800080E890E0098002C0959587950A94E2F787
:1009900080958E830000CE01069668E341E050E02A
:1009A0000E941D058823B9F30000CE01069668E376
:1009B00041E050E00E946B058823B9F38E81809559
:1009C0008F708E838E81882319F11C821B8208C050
:1009D0008E8186958E838B819C8101969C838B83EF
:1009E0008E818823A9F789819A819C01220F331F68
:1009F000220F331F8B819C810197820F931F880FD9
:100A0000991F805C9E4FFC01808191818D830BC07A
:100A100089819A8101969A83898389819A81843018
:100A200091050CF4ADCF8D8126960FB6F894DEBFFC
:100A30000FBECDBFCF91DF910895DF93CF93CDB798
:100A4000DEB728970FB6F894DEBF0FBECDBF9D83EB
:100A50008C836E8358874F8319820E9434078823C2
:100A600081F18E81882F90E0880F991F0E94CD051B
:100A7000882321F40E946A0780E024C085E090E08A
:100A80000E9454081B821A828A819B812C813D819D
:100A9000820F931FFC0120818A819B8101969B8399
:100AA0008A83822F0E94CD0589838981882339F02A
:100AB0002A813B818F819885281739072CF30E9462
:100AC0006A07898128960FB6F894DEBF0FBECDBFA6
:100AD000CF91DF9108950F931F93DF93CF93CDB7FD
:100AE000DEB727970FB6F894DEBF0FBECDBF9C834D
:100AF0008B836D835F834E830E943407882309F4C0
:100B000040C08D81882F90E0880F991F81600E94DE
:100B1000CD05882321F40E946A0780E033C085E078
:100B200090E00E9454081A82198211C089819A812A
:100B30002B813C818901080F191F81E00E945C060E
:100B4000F801808389819A8101969A8389838E81B5
:100B50009F819C012150304089819A81821793079F
:100B60002CF389819A812B813C818901080F191FFF
:100B700080E00E945C06F80180830E946A0781E0A1
:100B800001C080E027960FB6F894DEBF0FBECDBF40
:100B9000CF91DF911F910F910895DF93CF9300D0F4
:100BA0000F92CDB7DEB78B8388E390E028E330E087
:100BB000F90120812D7FFC01208388E390E028E368
:100BC00030E0F90120812E7FFC01208319823AC098
:100BD00087E390E027E330E0F90120812260FC0107
:100BE000208385E090E00E9454088B81882354F490
:100BF00087E390E027E330E0F90120812E7FFC01BC
:100C0000208309C087E390E027E330E0F9012081E9
:100C10002160FC01208385E090E00E94540887E376
:100C200090E027E330E0F90120812D7FFC01208353
:100C300085E090E00E9454088B81880F8B83898126
:100C40008F5F89838981883018F287E390E027E3FA
:100C500030E0F90120812260FC01208387E390E0ED
:100C600027E330E0F90120812E7FFC01208385E01D
:100C700090E00E94540887E390E027E330E0F90118
:100C800020812D7FFC01208386E390E0FC018081A0
:100C9000882F90E08170907021E0009709F020E0AB
:100CA0002A8385E090E00E9454088A810F900F907B
:100CB0000F90CF91DF910895DF93CF9300D00F92E3
:100CC000CDB7DEB78B83198288E390E028E330E06C
:100CD000F90120812D7FFC01208387E390E027E349
:100CE00030E0F90120812260FC01208385E090E062
:100CF0000E94540888E390E028E330E0F901208165
:100D00002E7FFC01208387E390E027E330E0F901A8
:100D100020812E7FFC0120831A8229C087E390E086
:100D200027E330E0F90120812260FC01208385E087
:100D300090E00E94540887E390E027E330E0F90157
:100D400020812D7FFC01208385E090E00E945408E3
:100D50008981880F898386E390E0FC018081982F48
:100D600091708981892B89838A818F5F8A838A81A7
:100D70008830A0F287E390E027E330E0F90120819A
:100D80002260FC0120838B81882349F087E390E077
:100D900027E330E0F90120812160FC01208385E018
:100DA00090E00E94540887E390E027E330E0F901E7
:100DB00020812D7FFC01208385E090E00E94540873
:100DC00089810F900F900F90CF91DF910895DF935D
:100DD000CF93CDB7DEB788E390E028E330E0F901A8
:100DE00020812D7FFC01208387E390E027E330E022
:100DF000F90120812260FC01208385E090E00E94BF
:100E0000540887E390E027E330E0F90120812E7F4A
:100E1000FC01208385E090E00E94540887E390E085
:100E200027E330E0F90120812D7FFC01208385E05C
:100E300090E00E94540888E390E028E330E0F90154
:100E400020812E7FFC01208387E390E027E330E0C0
:100E5000F90120812160FC01208385E090E00E945F
:100E60005408CF91DF910895DF93CF93CDB7DEB7CC
:100E700087E390E027E330E0F90120812E7FFC0139
:100E8000208387E390E027E330E0F90120812D7F84
:100E9000FC0120830E94B307882311F480E017C06F
:100EA00088E390E028E330E0F90120812E7FFC0107
:100EB000208387E390E027E330E0F901208121607F
:100EC000FC01208385E090E00E94540881E0CF91EE
:100ED000DF910895DF93CF93CDB7DEB788E390E03D
:100EE00028E330E0F90120812D7FFC01208387E396
:100EF00090E027E330E0F90120812260FC012083AB
:100F000088E390E028E330E0F90120812E7FFC01A6
:100F1000208387E390E027E330E0F901208121601E
:100F2000FC01208385E090E00E94540887E390E074
:100F300027E330E0F90120812D7FFC01208385E04B
:100F400090E00E94540887E390E027E330E0F90145
:100F500020812E7FFC01208385E090E00E945408D0
:100F6000CF91DF910895DF93CF9300D000D00F92FF
:100F7000CDB7DEB71D821A8219821FC084E190E0CE
:100F80000E94540886E390E0FC018081882F90E065
:100F900082709070009751F086E390E0FC018081B0
:100FA000882F90E081709070009711F481E08D831C
:100FB00089819A8101969A83898389819A818A306D
:100FC0009105E4F28D81882319F188E390E028E30C
:100FD00030E0F90120812D7FFC01208387E390E040
:100FE00027E330E0F90120812260FC01208385E0C5
:100FF00090E00E94540887E390E027E330E0F90195
:1010000020812D7FFC01208385E090E00E94540820
:101010008B819C8101969C838B838D81882331F009
:101020008B819C81893091050CF4A4CF8D8188231C
:1010300011F080E001C081E00F900F900F900F90B1
:101040000F90CF91DF910895DF93CF9300D000D020
:1010500000D0CDB7DEB79E838D831A82198214C06B
:101060001C821B8206C000008B819C8101969C83A0
:101070008B838B819C812AE08C389207A0F3898135
:101080009A8101969A83898329813A818D819E81F3
:101090002817390728F326960FB6F894DEBF0FBE3F
:1010A000CDBFCF91DF910895DF93CF9300D000D0D3
:1010B000CDB7DEB79C838B831A82198206C00000ED
:1010C00089819A8101969A8389838B819C819C0175
:1010D000220F331F89819A818217930780F30F9023
:1010E0000F900F900F90CF91DF910895DF93CF93E2
:1010F00000D000D0CDB7DEB79C838B8380918D026A
:1011000090918E020097D1F481E090E090938E024E
:1011100080938D021A8219820CC089819A8181572D
:101120009D4F20E2FC01208389819A8101969A8358
:10113000898389819A81803191057CF380E090E0F8
:1011400060E80E940E091A82198218C089819A816A
:1011500081579D4FFC018081282F81E090E0622F14
:101160000E940E0989819A8181579D4F20E2FC01DE
:10117000208389819A8101969A83898389819A81C2
:10118000803191051CF31A82198214C089819A81D9
:101190002B813C81820F931FFC018081282F898144
:1011A0009A8181579D4FFC01208389819A81019604
:1011B0009A83898389819A818031910554F4898148
:1011C0009A812B813C81820F931FFC0180818823AF
:1011D000E9F680E090E060EC0E940E091A82198224
:1011E00011C089819A8181579D4FFC018081282FF0
:1011F00081E090E0622F0E940E0989819A81019618
:101200009A83898389819A818031910554F30F9063
:101210000F900F900F90CF91DF910895DF93CF93B0
:10122000CDB7DEB727970FB6F894DEBF0FBECDBFA0
:101230009E838D836F8387E390E027E330E0F9019D
:1012400020812063FC01208384E390E024E330E0EC
:10125000F90120812F60FC0120838F8182958F709E
:101260008B838F818F708C8388E390E028E330E05C
:10127000F90120812F7EFC0120831A8219824EC041
:101280008D819E81009751F088E390E028E330E063
:10129000F90120812062FC01208309C088E390E0ED
:1012A00028E330E0F90120812F7DFC0120838FE0CD
:1012B00090E00E94540888E390E028E330E0F901D0
:1012C00020812061FC01208385E390E025E330E06C
:1012D000F9012081622F607FAE014D5F5F4F298150
:1012E0003A81240F351FF9012081262BFC01208330
:1012F0008FE090E00E94540888E390E028E330E01B
:10130000F90120812F7EFC01208388E090E00E947B
:10131000540889819A8101969A83898389819A8167
:10132000823091050CF4ACCF27960FB6F894DEBF4F
:101330000FBECDBFCF91DF910895DF93CF9300D043
:10134000CDB7DEB787E390E027E330E0F9012081F5
:101350002063FC01208384E390E024E330E0F90182
:1013600020812F60FC01208388E390E028E330E0B7
:10137000F90120812F7DFC0120831A82198233C05C
:1013800088E390E028E330E0F90120812061FC014E
:10139000208385E390E025E330E0F9012081422FAE
:1013A000407F29813A81205A3E4FF9012081242B28
:1013B000FC01208388E390E028E330E0F9012081FC
:1013C0002F7EFC01208389819A81880F991F84597F
:1013D0009E4FFC01808191810E94240889819A811D
:1013E00001969A83898389819A818C30910540F294
:1013F0000F900F90CF91DF910895DF93CF9300D09E
:1014000000D0CDB7DEB79A8389837C836B83298133
:1014100080E090E0622F0E940E098B819C8124E67F
:1014200030E0B9010E94720E9B01C9012AE030E050
:10143000B9010E94720E282F205D81E090E0622F9A
:101440000E940E098B819C812AE030E0B9010E9444
:10145000720E9B01C9012AE030E0B9010E94720EB0
:10146000282F205D81E090E0622F0E940E098B8181
:101470009C812AE030E0B9010E94720E282F205D85
:1014800081E090E0622F0E940E090F900F900F9064
:101490000F90CF91DF910895A0E2B0E0E2E5FAE08D
:1014A0000C94990E69837A838B839C832D833E836E
:1014B0004F835887CE010196BE01675F7F4F0E9420
:1014C000B00DCE010596BE016F5E7F4F0E94B00D3C
:1014D0009985923078F089898230C0F0943019F47F
:1014E000823041F4CBC0843019F4923079F4C6C014
:1014F000923051F481E02A859A89291709F480E015
:101500008A87CE010996BCC0823051F481E02A85D9
:101510009A89291709F480E08A8BCE014196B0C0E0
:101520006D847E848F849888ED88FE880F89188D5D
:10153000E0E2F0E080E090E0DC01AA24BB24650159
:1015400020E030E0A901B301617070706115710590
:10155000D1F02E0D3F1D401F511F15012601280EF1
:10156000391E4A1E5B1E81E090E0A0E0B0E02E151F
:101570003F054007510718F080E090E0DC01820D44
:10158000931DA41DB51DAA0CBB1CCC1CDD1C17FF94
:1015900009C061E0262E312C412C512CA228B32801
:1015A000C428D528319749F0EE0CFF1C001F111FED
:1015B0009694879477946794C6CF6B897C89EB85E2
:1015C000FC856E0F7F1F6E5F7F4F7C8F6B8F61E09E
:1015D000EA857A89E71709F460E06A8F6B8D7C8D64
:1015E00010C0FC01E170F070309729F056954795D6
:1015F000379527955068B695A795979587956F5F0E
:101600007F4FB7FDEECF0CC0880F991FAA1FBB1FDD
:1016100057FD8160220F331F441F551F61507040DA
:101620008030E0E09E07E0E0AE07E0E4BE0760F354
:101630006B8F7C8F6FE7E62EF12C012D112DE822A8
:10164000F9220A231B2360E4E616F10401051105C3
:1016500061F487FD0AC0211531054105510529F0C6
:10166000805C9F4FAF4FBF4F80788D8F9E8FAF8F25
:10167000B8A383E0898FCE01499602C084E891E047
:101680000E94E20CA096E2E10C94B50EA8E1B0E055
:10169000ECE4FBE00C94A50E69837A838B839C8336
:1016A0002D833E834F8358878E01075F1F4FCE01E6
:1016B0000196B8010E94B00D81E1E82EF12CEC0EEC
:1016C000FD1ECE010596B7010E94B00D89858230BE
:1016D00040F08989823028F0C801B7010E94190EB4
:1016E00001C08FEF6896E6E00C94C10EA8E1B0E06F
:1016F000ECE7FBE00C94A50E69837A838B839C83D3
:101700002D833E834F8358878E01075F1F4FCE0185
:101710000196B8010E94B00D81E1E82EF12CEC0E8B
:10172000FD1ECE010596B7010E94B00D898582305D
:1017300040F08989823028F0C801B7010E94190E53
:1017400001C081E06896E6E00C94C10EA8E1B0E02B
:10175000ECEAFBE00C94A50E69837A838B839C836F
:101760002D833E834F8358878E01075F1F4FCE0125
:101770000196B8010E94B00D81E1E82EF12CEC0E2B
:10178000FD1ECE010596B7010E94B00D89858230FD
:1017900040F08989823028F0C801B7010E94190EF3
:1017A00001C081E06896E6E00C94C10EA8E0B0E0CC
:1017B000ECEDFBE00C94A50E7B018C0183E08983AA
:1017C000D801C7018827B7FD83959927AA27BB278A
:1017D000282F8A83E114F1040105110519F482E030
:1017E000898337C08EE190E09C838B83222389F02C
:1017F00080E0E81680E0F80680E0080780E8180737
:1018000069F110950095F094E094E11CF11C011D24
:10181000111DED82FE820F831887C801B7010E9457
:10182000880C9C01215030401216130694F4022EAD
:1018300004C0EE0CFF1C001F111F0A94D2F7ED82AA
:10184000FE820F8318878EE190E0821B930B9C83AE
:101850008B83CE0101960E94E20C04C060E070E030
:1018600080E09FEC2896E6E00C94C10EACE0B0E07E
:10187000ECE3FCE00C94A90E69837A838B839C8350
:10188000CE010196BE016B5F7F4F0E94B00D8D812E
:10189000823081F1823070F1843021F48E8188238E
:1018A00069F10AC02F81388537FD24C06E812F3140
:1018B00031053CF0662311F120E030E040E050E8D3
:1018C00021C08EE190E0821B930B29853A854B85E0
:1018D0005C8504C056954795379527958A95D2F72C
:1018E000662381F050954095309521953F4F4F4F9D
:1018F0005F4F08C020E030E0A90104C02FEF3FEFA8
:101900004FEF5FE7B901CA012C96E2E00C94C50ED7
:10191000AF92BF92CF92DF92EF92FF920F931F93FD
:101920007B018C0180E0E81680E0F80681E0080782
:1019300080E0180758F4EFEFEE16F10401051105E9
:1019400009F090F480E090E0DC0117C0F0E0EF16C1
:10195000F0E0FF06F0E00F07F1E01F0750F480E130
:1019600090E0A0E0B0E009C088E090E0A0E0B0E046
:1019700004C088E190E0A0E0B0E020E230E040E088
:1019800050E0281B390B4A0B5B0B5701680104C060
:10199000D694C794B794A7948A95D2F7D601C50177
:1019A00084579E4FFC018081281B31094109510950
:1019B000C9011F910F91FF90EF90DF90CF90BF90E2
:1019C000AF900895EF92FF920F931F93CF93DF9301
:1019D000FC0124813581468157816181808182307B
:1019E00020F44061EFEFF0E0A3C0843009F49BC025
:1019F000823009F492C0211531054105510509F4E1
:101A00008FC00280F381E02D8FEFE238F8070CF0F1
:101A10005AC0C2E8DFEFCE1BDF0BCA31D1056CF52F
:101A200079018A010C2E04C016950795F794E79466
:101A30000A94D2F781E090E0A0E0B0E00C2E04C060
:101A4000880F991FAA1FBB1F0A94D2F70197A109FB
:101A5000B10982239323A423B52321E030E040E0A1
:101A600050E00097A105B10519F420E030E0A9018C
:101A70002E293F29402B512B03C020E030E0A90143
:101A8000DA01C9018F779070A070B0708034910531
:101A9000A105B10539F427FF09C0205C3F4F4F4F26
:101AA0005F4F04C0215C3F4F4F4F5F4FE1E0F0E0DC
:101AB000203080E0380780E0480780E4580728F5A8
:101AC000E0E0F0E022C0E038F1056CF5E158FF4FAE
:101AD000DA01C9018F779070A070B07080349105E1
:101AE000A105B10539F427FF09C0205C3F4F4F4FD6
:101AF0005F4F04C0215C3F4F4F4F5F4F57FF05C002
:101B00005695479537952795319687E05695479591
:101B1000379527958A95D1F70BC0E0E0F0E005C036
:101B2000E0E0F0E005C0EFEFF0E020E030E0A901F8
:101B30008E2F879588278795942F9F77679566279F
:101B40006795E695E22EA92FA82BFE2FF62B622F84
:101B5000732F8A2F9F2FCDB7DEB7E6E00C94C10E0E
:101B6000DC01FB012C9111963C91119712968C91FE
:101B70001297482F4F7750E0982F991F9927991F58
:101B800013966C911397862F880F892B90E0661F10
:101B90006627661F6183009739F5211531054105D8
:101BA000510511F482E029C082E89FEF938382837C
:101BB00067E0220F331F441F551F6A95D1F783E05A
:101BC000808309C0220F331F441F551F82819381D8
:101BD000019793838283203080E0380780E04807B4
:101BE00080E4580778F320C08F3F910579F42115E0
:101BF00031054105510519F484E08083089544FFBF
:101C000003C081E0808310C010820EC08F579040C7
:101C10009383828383E0808387E0220F331F441FF6
:101C2000551F8A95D1F750642483358346835783A3
:101C30000895FC01DB019081923008F449C08C9139
:101C4000823008F445C0943051F461818430B1F59C
:101C500011962C91119730E0261B310941C0843038
:101C600021F0923041F48230B1F111968C911197AC
:101C70008823A1F12DC06181823001F111968C91F0
:101C800011976817D9F42281338112968D919C9116
:101C900013978217930794F028173907BCF0248113
:101CA00035814681578114968D919D910D90BC91FF
:101CB000A02D82179307A407B50718F4662341F0F7
:101CC0000DC0281739074A075B0728F4662331F04F
:101CD00021E030E005C020E030E002C02FEF3FEF10
:101CE000C9010895AA1BBB1B51E107C0AA1FBB1F56
:101CF000A617B70710F0A61BB70B881F991F5A9598
:101D0000A9F780959095BC01CD01089597FB092E08
:101D100007260AD077FD04D0E5DF06D000201AF4AC
:101D2000709561957F4F0895F6F7909581959F4F37
:101D300008952F923F924F925F926F927F928F926F
:101D40009F92AF92BF92CF92DF92EF92FF920F934A
:101D50001F93CF93DF93CDB7DEB7CA1BDB0B0FB654
:101D6000F894DEBF0FBECDBF09942A883988488811
:101D70005F846E847D848C849B84AA84B984C884A7
:101D8000DF80EE80FD800C811B81AA81B981CE0F9E
:101D9000D11D0FB6F894DEBF0FBECDBFED01089583
:041DA000F894FFCFE5
:101DA4006400FFFFFFFFC409BE0A350CAC0D9A1096
:101DB40088136A183A20D4301F1F1F1F1F1F1F1FAC
:101DC400001F1F1F1F1F1F1F0000001F1F1F1F1F9B
:101DD400000000001F1F1F1F0000000000001F1F45
:101DE4000100020003000A000400050006000B00C5
:101DF4000700080009000C000E0000000F000D0091
:101E0400030303020208000C000100061600080088
:101E140002000200020002000200020002000200AE
:101E240002000200000000000000000000010202A5
:101E3400030303030404040404040404050505055E
:101E4400050505050505050505050505060606063A
:101E5400060606060606060606060606060606061E
:101E6400060606060606060606060606070707070A
:101E740007070707070707070707070707070707EE
:101E840007070707070707070707070707070707DE
:101E940007070707070707070707070707070707CE
:101EA40007070707070707070707070708080808BA
:101EB400080808080808080808080808080808089E
:101EC400080808080808080808080808080808088E
:101ED400080808080808080808080808080808087E
:101EE400080808080808080808080808080808086E
:101EF400080808080808080808080808080808085E
:101F0400080808080808080808080808080808084D
:101F1400080808080808080808080808080808083D
:0C1F240008080808080808080808080851
:00000001FF
